S014000049726F6E466F6F74323031342E7372656319
S11300000C9472000C947C000C947C000C947C0086
S11300100C947C000C947C000C947C000C947C006C
S11300200C947C000C947C000C947C000C947C005C
S11300300C947C000C947C000C947C000C947C004C
S11300400C947C000C947C000C947C000C947C003C
S11300500C947C000C947C000C947C000C947C002C
S11300600C947C000C947C000C947C000C947C001C
S11300700C947C000C947C000C947C000C947C000C
S11300800C947C000C947C000C947C000C947C00FC
S11300900C947C000C947C000C947C000C947C00EC
S11300A00C947C000C947C000C947C000C947C00DC
S11300B00C947C000C947C000C947C000C947C00CC
S11300C00C947C000C947C000C947C000C947C00BC
S11300D00C947C000C947C000C947C000C947C00AC
S11300E00C947C0011241FBECFEFD1E2DEBFCDBF44
S11300F00E9403010C940E010C94000010BA10929B
S1130100070180E480937C00EAE7F0E010828081BC
S1130110876080838081806880838081806480831D
S113012008958130910539F0029751F46093B3003A
S11301301092B40008951092B3006093B40008952F
S11301401092B3001092B40008958130910559F0D3
S1130150029791F4709389006093880010928B0049
S113016010928A000895109289001092880070936A
S11301708B0060938A000895109289001092880081
S113018010928B0010928A000895CF93DF93EC01B4
S1130190BC0181E090E00E949100BE0181E090E00A
S11301A00E94A500DF91CF91089583EA84BD94E075
S11301B095BD29EA20938000909381008093B0003C
S11301C086E08093B10017BC18BC1092890010928D
S11301D0880010928B0010928A001092B300109243
S11301E0B4000895E1E0F1E08081806480839D9A09
S11301F084B1806F84B90E94D50008951AB887B17C
S1130200887F87B908950E94F2000E94FE000E9430
S11302107E008AE090E00E94C500FFCFF894FFCFF3
S9030000FC
