:100000000C9472000C947C000C947C000C947C008A
:100010000C947C000C947C000C947C000C947C0070
:100020000C947C000C947C000C947C000C947C0060
:100030000C947C000C947C000C947C000C947C0050
:100040000C947C000C947C000C947C000C947C0040
:100050000C947C000C947C000C947C000C947C0030
:100060000C947C000C947C000C947C000C947C0020
:100070000C947C000C947C000C947C000C947C0010
:100080000C947C000C947C000C947C000C947C0000
:100090000C947C000C947C000C947C000C947C00F0
:1000A0000C947C000C947C000C947C000C947C00E0
:1000B0000C947C000C947C000C947C000C947C00D0
:1000C0000C947C000C947C000C947C000C947C00C0
:1000D0000C947C000C947C000C947C000C947C00B0
:1000E0000C947C0011241FBECFEFD1E2DEBFCDBF48
:1000F0000E947E000C948B020C940000CF93DF933F
:10010000CDB7DEB70E94F1010E9415020E9458028D
:1001100064E670E084E690E00E941D01FFCFCF937B
:10012000DF9300D000D0CDB7DEB79A8389837C837C
:100130006B8389819A818130910569F082309105C4
:10014000A1F483EB90E02B81FC01208384EB90E011
:10015000FC01108213C083EB90E0FC01108284EB61
:1001600090E02B81FC01208309C083EB90E0FC012F
:10017000108284EB90E0FC01108200000F900F9041
:100180000F900F90DF91CF910895CF93DF9300D020
:1001900000D0CDB7DEB79A8389837C836B83898156
:1001A0009A818130910581F082309105D1F488E8FF
:1001B00090E02B813C81FC01318320838AE890E030
:1001C000FC011182108218C088E890E0FC011182C5
:1001D00010828AE890E02B813C81FC0131832083EE
:1001E0000BC088E890E0FC01118210828AE890E060
:1001F000FC011182108200000F900F900F900F9061
:10020000DF91CF910895CF93DF9300D0CDB7DEB7C4
:100210009A83898389819A81BC0181E090E00E9460
:100220008F0089819A81BC0182E090E00E94C50024
:100230000F900F90DF91CF910895CF93DF9300D06F
:1002400000D0CDB7DEB79A8389837C836B838B81A3
:100250009C81BC0181E090E00E948F0089819A819D
:10026000BC0181E090E00E94C5000F900F900F90BC
:100270000F90DF91CF910895CF93DF9300D0CDB74A
:10028000DEB79A83898389819A81BC0182E090E0FC
:100290000E948F0089819A81BC0182E090E00E94D7
:1002A000C5000F900F90DF91CF910895CF93DF930A
:1002B00000D0CDB7DEB79A83898389819A81BC014A
:1002C00082E090E00E948F0089819A81BC0181E0E8
:1002D00090E00E94C5000F900F90DF91CF9108959C
:1002E000CF93DF93CDB7DEB760E070E080E090E0C1
:1002F0000E94C50060E070E080E090E00E948F0006
:10030000DF91CF910895CF93DF93CDB7DEB787E428
:1003100090E02CE7FC01208388E490E0FC0110824F
:10032000DF91CF910895CF93DF93CDB7DEB787E408
:1003300090E0FC01108288E490E0FC011082DF91E3
:10034000CF910895CF93DF93CDB7DEB787E490E0E8
:10035000FC01108288E490E026E4FC012083DF9118
:10036000CF910895CF93DF93CDB7DEB784E490E0CB
:1003700023EAFC01208385E490E024E0FC01208353
:1003800080E890E021EAFC01208381E890E02CE005
:10039000FC01208380EB90E023EAFC01208381EBC9
:1003A00090E026E0FC01208387E490E0FC011082CD
:1003B00088E490E0FC01108288E890E0FC01118262
:1003C00010828AE890E0FC011182108283EB90E0B9
:1003D000FC01108284EB90E0FC011082DF91CF9150
:1003E0000895CF93DF93CDB7DEB781E091E021E0B0
:1003F00031E0F90120812064FC01208383E390E057
:1004000023E330E0F90120812062FC01208384E2B3
:1004100090E024E230E0F9012081206FFC0120838C
:100420000E94B201DF91CF910895CF93DF93CDB7B2
:10043000DEB78AE290E0FC01108287E290E027E2DA
:1004400030E0F9012081287FFC012083DF91CF91EA
:100450000895CF93DF931F92CDB7DEB789838CE7E2
:1004600090E02CE730E0F9012081322F307E2981A5
:10047000232BFC0120838AE790E02AE730E0F90192
:1004800020812064FC01208300008AE790E0FC01C9
:100490008081882F90E0807499270097B1F788E7D2
:1004A00090E0FC01808191810F90DF91CF910895C0
:1004B000CF93DF93CDB7DEB780E390E0FC011082ED
:1004C00087E091E0FC0110828CE790E020E4FC01E1
:1004D00020838AE790E0FC0110828AE790E02AE717
:1004E00030E0F90120812760FC0120838AE790E059
:1004F0002AE730E0F90120812068FC0120838AE7A7
:1005000090E02AE730E0F90120812064FC0120839B
:0A051000DF91CF910895F894FFCF1A
:00000001FF
