S01500004D6963726F73756D6F323031342E737265638A
S11300000C9434000C9446000C9446000C94460066
S11300100C9446000C9446000C9446000C94460044
S11300200C9446000C9446000C9446000C94460034
S11300300C9446000C9446000C9446000C94460024
S11300400C9446000C9446000C9446000C94460014
S11300500C9446000C9446000C9446000C94460004
S11300600C9446000C94460011241FBECFEFD8E038
S1130070DEBFCDBF21E0A0E0B1E001C01D92A230FF
S1130080B207E1F70E943A020C9449020C94000072
S11300908130910529F0029731F467BD18BC0895A9
S11300A017BC68BD089517BC18BC0895813091052C
S11300B069F00297B1F4862F972F9093890080936B
S11300C0880010928B0010928A0008951092890083
S11300D010928800862F972F90938B0080938A002C
S11300E00895109289001092880010928B0010924B
S11300F08A000895CF93DF93EC01BC0181E090E086
S11301000E944800BE0182E090E00E945600DF9108
S1130110CF910895CF93DF93EC01BC0181E090E08F
S11301200E944800BE0181E090E00E945600DF91E9
S1130130CF910895CF93DF93EC01BC0182E090E06E
S11301400E944800BE0182E090E00E945600DF91C8
S1130150CF910895CF93DF93EC01BC0182E090E04E
S11301600E944800BE0181E090E00E945600DF91A9
S1130170CF91089560E070E080E090E00E94560026
S113018060E070E080E090E00E944800089583EA17
S113019084BD85E085BD81EA809380008DE08093F5
S11301A0810017BC18BC109289001092880010922C
S11301B08B0010928A0008958AB180668AB984B14E
S11301C0866084B90E94C70008958AB1807E8AB986
S11301D08BB18F618BB987B18C7F87B988B183600C
S11301E088B9089583B186FB882780F990E0089543
S11301F01F9903C00E94BA00FDCF089581E190E0E9
S11302000E948A0031991AC08FEF90E00E949A00F0
S11302102FEF80E792E0215080409040E1F700C04A
S113022000008CE390E00E947A002FEF80E792E0D8
S1130230215080409040E1F700C0000030991AC07E
S11302408FEF90E00E949A002FEF80E792E0215018
S113025080409040E1F700C000008CE390E00E94F1
S1130260AA002FEF80E792E0215080409040E1F710
S113027000C00000089531991AC08FEF90E00E94E9
S11302809A002FEF80E792E0215080409040E1F700
S113029000C000008CE390E00E947A002FEF80E71A
S11302A092E0215080409040E1F700C00000309976
S11302B01AC08FEF90E00E949A002FEF80E792E03F
S11302C0215080409040E1F700C000008CE390E0B2
S11302D00E94AA002FEF80E792E0215080409040D6
S11302E0E1F700C0000008954B9932C049990BC052
S11302F08CE390E00E947A008FE19EE40197F1F78D
S113030000C000000CC04A990AC08CE390E00E942F
S1130310AA008FE19EE40197F1F700C0000081E09C
S113032090E090930101809300018FEF90E00E9490
S11303308A008FE19EE40197F1F700C000000E945B
S11303403B018FE19EE40197F1F700C0000008959E
S11303508091000190910101892B29F010920101F3
S1130360109200010895499926C04A9919C081E064
S113037090E090930101809300018FEF90E00E9440
S11303808A008FE19EE40197F1F700C000000E940B
S11303903B018FE19EE40197F1F700C0000008954E
S11303A08CE390E00E947A008FE19EE40197F1F7DC
S11303B000C0000008954A9926C0499919C081E0F7
S11303C090E090930101809300018FEF90E00E94F0
S11303D08A008FE19EE40197F1F700C000000E94BB
S11303E03B018FE19EE40197F1F700C000000895FE
S11303F08CE390E00E94AA008FE19EE40197F1F75C
S113040000C00000089549990BC08CE390E00E945D
S11304107A008FE19EE40197F1F700C0000008958F
S11304204A990BC08CE390E00E94AA008FE19EE4FD
S11304300197F1F700C00000089548990BC08CE3C0
S113044090E00E947A008FE493EC0197F1F700C0EA
S1130450000008954C990BC08CE390E00E94AA0020
S11304608FE493EC0197F1F700C0000008950E9417
S1130470BA0008950E94DC000E94E5000E94F20088
S1130480892BE1F30E9474010E94FE000E94F8008F
S1090490F9CFF894FFCF40
S9030000FC
